:020000040800F2
:10000000008001201D03000869030008690300083F
:100010006903000869030008690300080000000084
:10002000000000000000000000000000690300085C
:100030006903000800000000690300086903000864
:1000400069030008690300086903000869030008E0
:1000500069030008690300086903000869030008D0
:1000600069030008690300086903000869030008C0
:1000700069030008690300086903000869030008B0
:100080006903000869030008690300080000000014
:1000900000000000000000000000000069030008EC
:1000A0006903000869030008690300086903000880
:1000B0006903000869030008690300086903000870
:1000C0006903000869030008690300086903000860
:1000D00069030008690300086903000800000000C4
:1000E00069030008690300086903000800000000B4
:1000F000000000000000000000000000690300088C
:100100000000000069030008690300086903000893
:1001100000000000000000000000000000000000DF
:1001200069030008690300086903000869030008FF
:10013000690300080000000000000000000000004B
:10014000000000000000000000000000690300083B
:1001500069030008690300086903000869030008CF
:1001600069030008690300080000000000000000A7
:10017000000000000000000000000000000000007F
:1001800000000000690300080000000000000000FB
:0401900069030008F7
:10019400054BD3F8882042F47002C3F888204FF04E
:1001A40000629A60704700BF00ED00E0364BD3F860
:1001B400882042F47002C3F88820344B1A6842F055
:1001C40001021A6000229A60196821F0847121F4F6
:1001D400803119602E495960196882B021F4802158
:1001E4001960DA60009201921A6842F480321A604F
:1001F4001A6802F400320192009A01320092019AC4
:100204001AB9009AB2F5A04FF2D1204B1B6813F42F
:10021400003318BF01230193019B012B04D01A4B17
:100224004FF000629A602DE0184B1A6C42F0805235
:100234001A64184A116841F4404111609A689A603E
:100244009A689A609A6842F480529A60124A5A6094
:100254001A6842F080721A6019680C4A8901FBD549
:100264000E4B40F202711960936823F0030393600C
:10027400936843F002039360936803F00C03082B24
:10028400FAD1CCE702B0704700ED00E0003802403C
:10029400103000240070004019544107003C024013
:1002A400184B194A996801F00C01042903D0082954
:1002B40003D0164B19E0164B17E059685A6811F42D
:1002C400800F596814BF124B104B02F03F02B3FB6E
:1002D400F2F30C4A5268C2F30142C1F388110132AD
:1002E40052004B43B3FBF2F3074A1360054B9A6881
:1002F400054BC2F303129A1811791A6822FA01F213
:100304001A60704700380240000000200024F40006
:1003140040787D01FEE70000002100F004B80C4B9A
:100324005B58435004310B480B4B42189A42FFF47C
:10033400F6AF0A4A00F003B8002342F8043B084B26
:100344009A42FFF4F9AFFFF723FFFFF7E3FF70478B
:100354006C0300080000002014000020140000209A
:0803640014000020FFF7FEBFAA
:10036C0000BD0105000000000000000001020304B4
:04037C00060708095F
:040000050800031DCF
:00000001FF
